:020000041000EA
:1000000000B5324B212058609868022188439860DF
:10001000D860186158612E4B002199600221596106
:100020000121F02299502B49196001219960352056
:1000300000F044F80222904214D00621196600F024
:1000400034F8196E01211966002018661A6600F04E
:100050002CF8196E196E196E052000F02FF8012189
:100060000842F9D1002199601B49196000215960AB
:100070001A491B48016001219960EB211966A021F2
:10008000196600F012F800219960164914480160C1
:100090000121996001BC002800D000471248134993
:1000A000086003C880F30888084703B5996A0420EC
:1000B0000142FBD001200142F8D103BD02B5186610
:1000C0001866FFF7F2FF186E186E02BD00000240BE
:1000D000000000180000070000035F00212200005C
:1000E000F4000018222000A00001001008ED00E03C
:1000F00000000000000000000000000074B24E7A12
:1001000000200420F7010010C3010010C5010010F9
:10011000C1010010C1010010C1010010C101001097
:10012000C1010010C1010010C1010010C701001081
:10013000C1010010C1010010C9010010CB01001065
:10014000CD010010CD010010CD010010CD01001037
:10015000CD010010CD010010CD010010CD01001027
:10016000CD010010CD010010CD010010CD01001017
:10017000CD010010CD010010CD010010CD01001007
:10018000CD010010CD010010CD010010CD010010F7
:10019000CD010010CD010010CD010010CD010010E7
:1001A000CD010010CD010010CD010010CD010010D7
:1001B000CD010010CD010010CD010010CD010010C7
:1001C00000BE00BE00BE00BE00BE00BE00F04BF888
:1001D000103800BEF2EB8871602800107C280010F7
:1001E0003402001090A31AE700202149086006C8D5
:1001F00081F3088810471F48006800282FD10DA4FC
:100200000ECC002902D000F012F8F9E71A491B4A77
:10021000002000E001C19142FCD1194988471949E9
:1002200088471949884700BEFDE701C901C29A42C3
:10023000FBD370477C280010C00000206C0A00200F
:100240002832001000000420000004202832001092
:1002500000100420001004200000000070470B482C
:1002600001F078FE0047EFF30580C0B27047000050
:1002700008ED00E0000000D0700A0020740E00209D
:10028000F11600100D03001015180010575600004D
:1002900006005250ABB360531828001006005250AD
:1002A000861C030228280010060052505422A29DEA
:1002B0002C28001005005250DE65F468283200102A
:1002C000F8B5C04610B5064C2378002B07D1054B76
:1002D000002B02D0044800E000BF0123237010BDB2
:1002E000700D002000000000B0270010044B10B576
:1002F000002B03D00349044800E000BF10BDC046F6
:1003000000000000740D0020B027001070B5192007
:1003100092B000F05FFBD02380221B0692045A6249
:100320000C230A260693033B0593013B0493013BF0
:100330000393013B029305330193063B02210EAC6C
:10034000032200930796013B09A800F0E7F9220079
:100350000C4B0C9403CB03C21B880CAD1380002301
:1003600009A8AB740A222100C8330D9600F038FAB0
:100370000C98A04203D00E99013101F017FF002024
:1003800012B070BDB0270010F8B5DE4657464E4695
:100390004546E0B501252A000378D0249A4024067A
:1003A000A2612A00437882469A40A2610379877944
:1003B000984643799C460300197A5A7A9B7AC07909
:1003C0009B465346DE78B1462E004B469E40434640
:1003D00066622E009E40634666622E009E40666204
:1003E0002E00BE4066622E0086402800884029000C
:1003F0005B4691402A009A405346666260626162A1
:1004000062621B79984653465B799C4653469F79B6
:10041000D879197A5A7A9B7A9B465346DE78B14648
:100420002E004B469E404346B14666622E009E40DB
:100430006346B04666622E009E406662B4462E0059
:10044000BE40666237002E008640666230002E0095
:100450008E40666231002E0096405B466662320036
:100460002E009E40666233004E46A6614646A66157
:1004700066466661676160616161A261A36153461E
:100480002A009B7801209A400021626100F0B0FDB3
:1004900053469B789D40A561F0BCBB46B246A94639
:1004A000A046F8BDF8B5DE4657464E46454682465C
:1004B000E0B501260F2000F0B3FD5046FFF764FFC2
:1004C000052000F0ADFD5046FFF75EFF00216E20D5
:1004D00000F08EFD5046FFF757FF0021322000F05C
:1004E00087FD5046FFF750FF3220002100F080FDCD
:1004F000534632001B78D0249A4053462406A2610A
:1005000032005B789A405346A2611B799846534665
:100510005B799C4653469F79D879197A5A7A9B7AA7
:100520009B465346DD78A94635004B469D404346E1
:10053000656235009D406346656235009D40656299
:100540003500BD406562350085403000884031008F
:100550005B46914032009A40534665626062616238
:1005600062621B79984653465B799C4653469F7955
:10057000D879197A5A7A9B7A9B465346DD78A946F0
:1005800035004B469D4043466562A94635009D4077
:1005900063466562A84635009D40AC4665623500FD
:1005A000BD402F006562350085406562280035003A
:1005B0008D4065622900350095405B4665622A00E2
:1005C00035009D4065622B004D466561454665617D
:1005D000654665616761A061A161A261A36153463F
:1005E00032009B7801209A400021626100F000FDFA
:1005F000534632009B7832209A400021A26100F0DD
:10060000F7FC534632001B789A405346A2613200F1
:100610005B789A405346A2611B79984653465B79B2
:100620009C4653469F79D879197A5A7A9B7A9B4689
:100630005346DD78A94635004B469D4043466562EA
:1006400035009D406346656235009D40656235001A
:10065000BD406562350085403000884031005B4612
:10066000914032009A405346656260626162626204
:100670001B79984653465B799C4653469F79D879B7
:10068000197A5A7A9B7A9B465346DD78A9463500FB
:100690004B469D4043466562A94635009D406346F2
:1006A000A846656235009D40AC4665623500BD4098
:1006B0002F006562350085406562280035008D4059
:1006C00065622900350095405B4665622A00350069
:1006D0009D4065622B004D46A561454665616546B6
:1006E0006561A761A061A161A261A3615346320067
:1006F0009B7801209A400021626100F079FC53460A
:100700009B7832209E400021A66100F071FCF0BC75
:10071000BB46B246A946A046F8BDC046F0B5D6468F
:100720004F46464604009946C0B508AB1B78627038
:1007300098464A4609AB1B78A2709C4642460AABD3
:100740001B78E2709A4662460800227152460CA954
:100750000F780DA90E780EA90D780BAB0FA91B7899
:1007600009786271A371A1722070E77126726572B7
:1007700000F030F9607800F02DF9A07800F02AF947
:10078000E07800F027F9207900F024F9607900F092
:1007900021F9A07900F01EF9E07900F01BF9207A28
:1007A00000F018F9607A00F015F9A07A00F012F95B
:1007B00001231900227818009140D02212065162BC
:1007C000617888405062A17820008B405362FFF727
:1007D00069FE2000E0BCBA46B146A846F0BDC0465E
:1007E000F0B54E46DE4657464546E0B585B00600B4
:1007F0000293002A00D1E5E0D024013A4B1CD2B28A
:100800009B18012503932406019145E05B46636133
:100810000223009F3B4200D1AEE0534663613B00A0
:100820005B0700D4AEE04B466361009B1B0700D41E
:10083000AEE043466361009BDB0600D4AEE0634656
:100840006361009B9B0600D4AEE0009B60615B0689
:1008500000D4AEE06B461B7861615BB2002B00DB1D
:10086000AEE062612A00B37801209A400021626103
:1008700000F0BEFB2A00B37832209A400021A2612A
:1008800000F0B6FB029800F0CBFB019A039B01320B
:1008900001929A4200D195E029003278019B914063
:1008A0001B7800936161290072789140A161F7780B
:1008B0003279BB462F005B4692469F407279307A70
:1008C0009146B279717A9046F27953469446B27A5B
:1008D00067622F009F404B4667622F009F40434650
:1008E00067622F009F40634667622F009F406762E8
:1008F0002F008740280088402900914067622F0020
:10090000606261623379307A9A467379717A994676
:10091000B379B27A9846F3799C46F3789F40534670
:100920006762BB462F009F404B466762BA462F0066
:100930009F4043466762B9462F009F406346676207
:10094000B8462F009F406762BC462F008740676211
:1009500038002F008F40676239002F009740009BBE
:100960003A0067621D4200D050E75B46A361022354
:10097000009F3B4200D050E75346A3613B005B071A
:1009800000D550E74B46A361009B1B0700D550E7FD
:100990004346A361009BDB0600D550E76346A36195
:1009A000009B9B0600D550E7009BA0615B0600D52D
:1009B00050E76B461B78A1615BB2002B00DA50E771
:1009C000A2614FE705B0F0BCBB46B246A946A046BF
:1009D000F0BDC0460123D02283401206936293618A
:1009E000094A83009446402263441968C0004A4083
:1009F000C02111408022520113431960034B9C46D1
:100A0000052360444360704704C00140004001403A
:100A100070B5EFF3108C72B60D4D2B68002BFCD027
:100A2000BFF35F8F0724CB08C618C05C01230C40BE
:100A3000A3401C000440034207D103433370BFF3BB
:100A40005F8F2C608CF3108870BD100000F0E4FE06
:100A50002C0100D0024B18688007C00F7047C046B9
:100A600000C006400021044B044ABFF35F8F02C35D
:100A70009342FAD17047C046000100D0800100D0F7
:100A8000044A1078431CDBB2172B00D910231370D3
:100A90007047C0467801002083680B4810B5844633
:100AA00061446244090112019A18591854684B684C
:100AB00001209C4201D802D00020C0B210BD1268B3
:100AC0000B689A42F9D8F7E7FFFFFF0F0A4B196846
:100AD000EFF3108072B60A68002AFCD0BFF35F8F74
:100AE0001B68BFF35F8F00221A6080F3108840BF3D
:100AF000002000217047C0465C0E0020F8B5574624
:100B00004E464546DE46E0B599460CAB1C780DAB2B
:100B10001B78060090469A460768002C11D1BC7BD2
:100B2000002C42D065003B682D19033D59194B78C4
:100B3000BB73002B00D1FB7300238B704B700B70C9
:100B400004E065003B682D19033D5919B2682A4B32
:100B500094464246E3181B0163441A604A465A60B1
:100B60000A9A9A600B9ADA6000238B704B700B70B4
:100B70007B7B9B46002B2BD022005946B8687B68B4
:100B800098473A68002816D05B4658465B005B449D
:100B90005519033BA870D118D35C002B00D06B70A3
:100BA0005B460C707B73A34513D0F0BCBB46B246CA
:100BB000A946A046F8BD5B465B005B44033BD318E7
:100BC0009C705119525D002A00D05A705B460B7020
:100BD0007C7342464B46307D00F006FB051E06D076
:100BE0005346002B03D12100306800F043FD0E9BDB
:100BF000002BDAD01D70D8E7FFFFFF0FF0B5DE46FF
:100C00004E46574645460023E0B58DB00A936B4BE0
:100C10008200D3580B90994600239B464B4607937E
:100C200000F082FA079C06000F006268EFF310855F
:100C300072B61368002BFCD022000794BFF35F8FBD
:100C40002468637B9946002B67D092685C4B904682
:100C50004B441B01984443461A685B681000190016
:100C6000801BB94100295FDD0B9800F0BDFA00231D
:100C70000026984600279A46079C6368BFF35F8F5B
:100C80005A461A6085F310885346002B08D1002875
:100C9000C6D10DB0F0BCBB46B246A946A046F0BDD9
:100CA0000A9B414618024B461843D04708900991C9
:100CB0006268EFF3108572B61368002BFCD00794BE
:100CC000BFF35F8F0899099A002A48DB114303D0CC
:100CD000079B1B69002B5DD1079B1B68D97B0029F3
:100CE00007D04A00521819688C4649466244033AB4
:100CF00051704A46DA734B46079A013BD168CA5C89
:100D00000132CA545B46079A13615368BFF35F8F81
:100D10005A461A6085F3108882E700230026984619
:100D200000279A460020A7E7002901D100289BD17F
:100D30000021200000F020FC43461E685F689B688D
:100D4000079A9A464346DB689846D3684B44013B72
:100D50001B780A931B020343136100208CE723696D
:100D6000002BB9D033003C005B1A94411A002300D9
:100D7000A74219D89F421BD05946049101210391E3
:100D80004946029141460191514607980091FFF76B
:100D9000B5FEB7E700F0C8F9089A099B06000F00F6
:100DA00092197B419942E5D901225242D317E3E7D8
:100DB0009642E1D901225242D317DDE7480E0020C6
:100DC000FFFFFF0FF8B557464E464546DE46E0B5F5
:100DD000404D81468A466A68EFF3108872B6136800
:100DE000002BFCD0BFF35F8F2E68B47B002C39D072
:100DF000670033683F19033FDB195A78B273002A42
:100E000000D1F273A968344A8C464946A2181201EF
:100E10006244116051465160304991600021D160B7
:100E2000997059701970737B9B46002B35D0220046
:100E30001900B068736898473268002820D05B4674
:100E400058465B005B44D719033BB870D118D35C9C
:100E5000002B00D07B705B460C7073735C451DD01B
:100E6000002626E06B68BFF35F8F1C6088F3108854
:100E700001204042F0BCBB46B246A946A046F8BDA0
:100E80005B465B005B44033BD3189C70D119D25D79
:100E9000002A00D05A705B460B7074734A46534662
:100EA000287D00F0A1F9061EDAD02100286800F0A4
:100EB000E1FBEB681B19013B19786B68BFF35F8F8F
:100EC00000221A6088F310880020002ED2D1080278
:100ED0002043CFE77C010020FFFFFF0FCD0A001069
:100EE00010B5124C6368002B04D00A21104800F0A2
:100EF00009FA10BD23000F4A1021206800F05AFAA9
:100F0000032000F005F9032000F0DEF903200A4970
:100F100000F024F9FFF7B4FD084B9C46032360441E
:100F20002375074B80006060DC60DEE77C010020F9
:100F30005C0E0020990A0010FD0B001040000034E8
:100F4000480E0020F0B504000D0006267642F71783
:100F5000C64636196F4100B58F4213D810D000F045
:100F6000E3F832003B00121A8B41002B14DC002BFB
:100F700037D02900200000F0E1F880BCB846F0BD71
:100F80008642ECD90026002700F0CEF832003B0064
:100F9000121A8B41002BEADD30003900FFF712FFF7
:100FA0000028E6DB00239846BC460F4A0F4F7B6AB9
:100FB0009C4504D8B96A8E42DBD99C45D9D11168C9
:100FC000EFF3108072B60B68002BFCD0BFF35F8F7D
:100FD0001368BFF35F8F4146196080F3108820BF0C
:100FE000E5E7002AC5D0D7E75C0E002000400540A9
:100FF00070B504000D0000F097F802000B0020000F
:101000002900801859418B4205D802D0FFF79AFF7A
:1010100070BD8242FAD901204042C117F6E7C046AE
:1010200070B5060000F080F8FA2204000D000023DD
:1010300030000021920001F045F8001969418D420D
:1010400005D802D0FFF77EFF70BD8442FAD9012097
:101050004042C117F6E7C046F0B5D6464F46464671
:10106000C0B5EFF305833F22134018001038EFF3AB
:10107000108C72B6204D2A68002AFCD0BFF35F8F17
:101080000122110081401D4C884661631C491700F4
:101090000E788A463100C1400F400A4209D1BFF3A1
:1010A0005F8F2F608CF31088E0BCBA46B146A8462B
:1010B000F0BD14498200646A51588C420FD3124B20
:1010C000D25843469E4353461E70BFF35F8F0023A2
:1010D0002B608CF31088002AE6D09047E4E70B4A97
:1010E0009B00904643441A681A60BFF35F8F002349
:1010F0002B608CF31088D7E7280100D00040054012
:10110000720E0020600E0020BC0D0020D03F054074
:1011100010B50100024A0348FFF77AFC10BDC04633
:10112000BC270010700E0020034B596A0A00986A11
:10113000596A8A42FAD1704700400540064A536A0C
:101140009942FCD807D1044B02E05A6A914202D17D
:101150009A6A8242F9D370470040054070B5040096
:101160000D00EFF3108672B61A4A1368002BFCD0FC
:10117000BFF35F8F002D1BD0200000F0DBFC164971
:1011800081420AD0200000F0DDFC0121200000F0A7
:10119000BFFC0123A340114A1360114BA400E5508A
:1011A000BFF35F8F00220B4B1A6086F3108870BD6F
:1011B0000B4BA200D5500122A2400A4920000B7817
:1011C00093430B70044900F0E7FC0021200000F07D
:1011D0009FFCE5E7280100D0591000103860054059
:1011E000BC0D0020720E0020F0B54F46D646464694
:1011F000C0B507002F4C616A0D00A66A616AA9425A
:10120000FAD18B4208D805D00120E0BCBA46B146DD
:10121000A846F0BDB242F7D9EFF3108A72B626485D
:1012200001680029FCD0BFF35F8F0125BD40234931
:10123000204C8846097889462943C9B28C464146E4
:1012400060460870391D1E48890065630A51B9005F
:101250000B50216A0020294219D0616A0800A66A51
:10126000616A8142FAD18B4219D801D1B24216D8B3
:10127000CC451DD00F4B1F201D625D63012307402D
:10128000BB40104A1E38136043464A461A70BFF3EB
:101290005F8F0022084B1A608AF31088B5E70020A0
:1012A000BFF35F8F0022044B1A608AF31088ACE70B
:1012B0000120ECE700400540280100D0720E00201C
:1012C000600E002080E200E0EFF3108C72B60A4955
:1012D0000B68002BFCD0BFF35F8F01238340074ACC
:1012E0000748136202789A430270BFF35F8F0023AE
:1012F0000B608CF310887047280100D00040054037
:10130000720E0020024B9C466144890001607047C8
:101310004000003410B50400FFF7B2FB01002000CC
:10132000FFF7F0FFFF232371BFF35F8F10BDC046AF
:1013300010B50400FFF7A4FB01002000FFF7E2FF57
:10134000FF23A380BFF35F8F10BDC04670B50500BB
:1013500014001600002915D00C00002A12D0806855
:101360006B689847296800280ED073009B196200AB
:10137000033B1219CB18033A9C7088188A5C002A28
:1013800015D10670200070BD63001B197200033B6D
:101390009219CB18033A9E7088188A5C002A02D1F1
:1013A00004703400EEE75A7004703400EAE75A70B3
:1013B0000670E7E730B583600023CCB24373013396
:1013C000047342608373C4730D000068012C06D956
:1013D000421C0133DBB2137003329C42F9D1FF216E
:1013E00029404B005918002340180338437030BD82
:1013F000F8B5CE46474606000C0080B5002907D058
:101400004D0003686D18033D5A195778002F04D119
:101410002000C0BCB946B046F8BD7900C9190339EF
:101420008846434459788946002159705170736841
:101430003A002100806898473368002814D042465B
:101440009A18947059195B5D002B00D053700F707F
:10145000270049463000FFF7CBFF3900020030007B
:10146000FFF774FF0400D3E7424641465D19AF70B1
:101470009A185B5C002B00D06B701470E9E7C046D3
:10148000F0B557464546DE464E46E0B50D006B00CA
:1014900001685B19DF1E0400C85D83B00192CA19A0
:1014A00000284CD043001B18033BCB185E78B44691
:1014B000002E16D1019E002E3ED0E67B002E04D0D9
:1014C00073009B19CB18033B5D70E57300282FD187
:1014D0000023537003B0F0BCBB46B246A946A046F9
:1014E000F0BD72006244033A89184A78904600229F
:1014F0004A7091465A70010032002000FFF726FF23
:1015000043468246002B07D05B0021684344033BDF
:10151000CB185A78002A16D1424651462000FFF7D0
:1015200015FF2168019BCA19002BC6D10028CFD016
:1015300043001B18033BCB1800219970C8E7019B9F
:10154000002BBAD1C4E75000801803380918487836
:10155000834648464870587041462000FFF7F6FE23
:10156000594680462000FFF743FF41460200200015
:10157000FFF7ECFE8046CFE7F0B557464546DE461E
:101580004E46E0B583B00191457B04006B000068D6
:101590005B19DF1EC15DC21900294ED04B005B18DC
:1015A000033BC3185E78B446002E18D1019E002E6E
:1015B00040D0E67B002E04D073009B19C318033B78
:1015C0005D70E573002931D10023280053706173E9
:1015D00003B0F0BCBB46B246A946A046F0BD7200BF
:1015E0006244033A80184278904600224270914645
:1015F0005A7020003200FFF7A9FE43468246002BB6
:1016000007D05B0021684344033BCB185A78002A7B
:1016100017D1424651462000FFF798FE019B01007A
:101620002068C219002BC4D10029CDD04B005B1813
:10163000033BC31800209870C6E7019B002BB8D16C
:10164000C2E7500080180338091848788346484696
:101650004870587041462000FFF778FE5946804692
:101660002000FFF7C5FE414602002000FFF76EFE96
:101670008046CEE770B5040000292CD0437B8B4216
:101680002ED0056848004018033828188278002AB0
:1016900021D053009B18033BEA5CEE188A4202D12A
:1016A0001BE0002A08D053009B18033BEB185A7824
:1016B0008A42F6D142785A70002301228370437027
:1016C0002000FFF7DDFE617B02002000FFF73EFEF9
:1016D0006073012000E0002070BD43783370EBE7B9
:1016E00001221900FFF7CCFE60730120F4E7C04629
:1016F0002C4B2D4A70B51A602C4A2D4B2D491A607F
:1017000014008B689C43FBD12B4D2C4EB54208D264
:10171000013E761BB60808CD984723000134B3423A
:10172000F9D100F097F8264A214B1A60214A9368B4
:10173000DB43DB01DD09002BF9D14022214B224C98
:10174000224E9A675A671A67DA66B44208D223684B
:101750002000002B20D00834FFF7EAFDB442F6D376
:101760001B4E1C4CC022A168300000F019FDA66081
:10177000FFF778F900F044FBFFF7B2FB164C174E69
:10178000B44208D2013E361BB60808CC98472B005D
:1017900001359E42F9D170BD0834FFF7BBFDB4425C
:1017A000D5D3DDE700E00040BFCDFBFEFE7F3C006F
:1017B00000F0004000C00040580A0020680A0020E5
:1017C000FFFFFF0100F00140500A0020580A0020EE
:1017D0000000002000ED00E0680A00206C0A0020F4
:1017E000094A03001068002805D00849C3188B4235
:1017F00007D81360704706480449C31810608B422D
:10180000F7D901204042F5E7400E002000000420F7
:10181000740E002000BEFDE70FB400B5084883B089
:1018200000F0F8FD049B002B07D005A918000191DA
:1018300000F070FB034800F0EDFD00BEFDE7C04680
:10184000E0270010F027001010B50148FFF7E4FF73
:10185000F427001030B50C2083B000F037FBFFF701
:10186000F9F800280ED0944B944A1A605A609A6096
:10187000DA601A615A619A61DA611A62904A5A62B0
:1018800003B030BD8F4CA06700F028FB01228E4BC7
:101890001A60636C012BFCD103228C4B1A60894ABD
:1018A000936B012BFCD102240121894A894805331D
:1018B000009400F0B7FA0523874A01218748009475
:1018C00000F0B0FA864B5A68FF2A02D880225200F4
:1018D0005A608022784C7D4B21691201804D1A603C
:1018E000002905D0606900F067FB01300138FDD1A7
:1018F000E0217B4B02201A681140802252012A43CA
:1019000011601968484003210140116004219A6860
:101910001142FCD08022802192012A4309011160EA
:10192000802252005A606F4B23616F4B5968FF2928
:1019300000D85A600321644A6B4B116002399A68DF
:101940001142FCD0E0201A681040802252011A4354
:10195000106018684840032101400220116062496C
:101960008A681042FCD08022920113438022120127
:101970001A6080225D4B52004A6063615C4B59687B
:10198000FF2900D85A6080225A4BE1691201584D54
:101990001A60002905D0606900F00EFB01300138A3
:1019A000FDD1E02252490B681A4080235B012B4392
:1019B0001A60802380229B012B4312011A6080222F
:1019C0003E4B52004A60E3614B4B5968FF2900D8F7
:1019D0005A608022494B216A1201474D1A60002942
:1019E00005D0606900F0E8FA01300138FDD1E0224D
:1019F00041490B681A4080235B012B431A60802306
:101A000080229B012B4312011A60802380225B00FD
:101A10004B602A4BD2022362394B5968914200D263
:101A20005A608022374B616A1201354D1A600029D5
:101A300005D0606900F0C0FA01300138FDD1E02224
:101A40002F490B681A4080235B012B431A608023C7
:101A500080229B012B4312011A608023DB024B6022
:101A6000174B6362284B5A68FF2A02D88022520023
:101A70005A608022254BA1691201234D1A6000296A
:101A800005D0606900F098FA01300138FDD1E022FC
:101A90001D490B681A4080235B012B431A60802389
:101AA00080229B012B4312011A6080235B004B6054
:101AB0000E4BA361E4E6C046CC0D0020006CDC02B6
:101AC0001BB70000008000403CB0004030B0004038
:101AD000002F68590080024000389C1C00C0024062
:101AE00030800040001BB7003C8000404059730725
:101AF0005480004054B000406080004060B000401E
:101B00006C8000406CB000404880004048B000400D
:101B100001238340002904D0034A1360034A136061
:101B20007047034A1360FBE780E200E000E100E059
:101B300080E100E0024B10309B688000C058704785
:101B400000ED00E070B50D00EFF3108672B60F4A9D
:101B50001368002BFCD0BFF35F8F0D4B10309B68D8
:101B600084001B590B4A934203D09D4201D0FFF7DA
:101B70006BFE074B9B681D51BFF35F8FBFF35F8FF9
:101B80000022024B1A6086F3108870BD240100D039
:101B900000ED00E0CD010010F0B5DE4657464E46A0
:101BA0004546E0B50C0083B0EFF3108A72B65A4A8E
:101BB0001368002BFCD0BFF35F8F10229146814445
:101BC0004A46564B96009B689D59554B98469D42F8
:101BD00005D0A54216D0534FEB1B2F2B14D94F4BDA
:101BE0009B689D51BFF35F8FBFF35F8F00224A4B0D
:101BF0001A608AF3108803B0F0BCBB46B246A9460F
:101C0000A046F0BD1D00EAE7012383409B465A46EB
:101C1000454B1B681A4000925A46444B1A60BFF36A
:101C20005F8FFEF720FB0190002803D0814501D093
:101C3000FFF70AFE01232A009A4313003C49DB1BED
:101C40005B415943090D93689C4208D15AE0430017
:101C50001B189B00FB189868A04211D01A000620A0
:101C600010560028F3DA009B002B05D05A46314B62
:101C70001A602D4B1A60B2E75A462C4B1A60AEE739
:101C800006201856002821DB4200111889007C1814
:101C90008846A1689960E179D971062161569971E8
:101CA00000291FDBA488F91A640524154444091986
:101CB000E0240905490D24022143998012181E4B86
:101CC0009200BF181A781870BA71CCE701980028F2
:101CD0000BD1FF30907119489080174A107811701D
:101CE0009871C0E7BD210902E7E7154A1549D21AE4
:101CF000083A5002400D01439980134952080A43A3
:101D0000DA80B0E70620105613000028BCDA019AEA
:101D1000002AEAD14546E0E7240100D000ED00E0CA
:101D2000CD010010A401002000E100E080E100E00E
:101D3000AAAA000080E200E0710E002000BDFFFFB3
:101D4000DE01002000F0FFFF00F8FFFFF8B50125DD
:101D500004000543FEF787FAEFF3108C72B6214AB0
:101D60001368002BFCD0BFF35F8F1F4E2100B768B4
:101D70001E4A1F4B891A49414B431B0D59B2830020
:101D8000F858A8421CD00623D3568B421CD01223ED
:101D9000D3568B4222D01E23D3568B4220D02A23E7
:101DA000D35603208B4210D0124B1A781970A271AF
:101DB000BFF35F8F00220B4B1A608CF31088F8BDC5
:101DC000B2680D48D050EFE7002043001B189B007D
:101DD000D218FF239371094B9380E5E70120F4E7C4
:101DE0000220F2E7240100D000ED00E0A401002071
:101DF000AAAA0000710E0020CD01001000BDFFFF57
:101E0000054B064A1360064A136053609360D36023
:101E100013615361936170478080808000E400E02B
:101E200004E400E0F0B5C646040000B50C2090467E
:101E30001F000E0000F0C0F84101091A8D01691A57
:101E4000C90009188901404600F0B6F8069B3F0416
:101E50001A0323681743002B22DB184B184DE21896
:101E600053425A4180235B019C461203154B624446
:101E70001A60154B1A601100AB689943FBD1C02260
:101E8000231D92011A4321232660A060136023685A
:101E9000002BFCDA0823E760136080BCB846F0BD75
:101EA0003F2322681340B342D7D1A3681B051B0D03
:101EB0008342D2D1E368002FCFD1EEE70040FDBFCF
:101EC00000C0004000E0004000F000408023024AD3
:101ED0009B000343D362704700800540AA23064A53
:101EE0001B0113602F230549D360054B196053680C
:101EF000002BFCDA7047C0460040024000B0FA00F8
:101F00000060024010B5002800D110BD00F032FA88
:101F1000FBE7C04610B5094A0300146884B0002CE2
:101F200008D0012200910648524203A9A04701208F
:101F300004B010BD00F06EFA0020F9E7440E002056
:101F4000051F001001480421014B1847F001002033
:101F5000751F0010142310B50100188804331B8866
:101F6000984710BD162310B50100188802331B884E
:101F7000984710BDF8B54746CE4680B50F1E19D01C
:101F800014239946043304000025012698464B4645
:101F90001888434621681B88984701C4431E98410E
:101FA000013540420640AF42F1D13000C0BCB946D5
:101FB000B046F8BD0126F8E7114A936F9B0813D28B
:101FC00010665166002905D0FFE7FFE7FFE7516F74
:101FD000106F704704B5002801D00020C04300F006
:101FE000CFFB002104BDC046F0B5146E556E576F8F
:101FF000166FFFF7E5FF1466556657671667F0BD65
:10200000000000D0132370B51D78012D15D010DD10
:102010001C48FFF7A7FF1C4C01008022200000F0A5
:10202000BFF8022D06D01948FFF794FF184B18602F
:1020300070BD154C174BA364F5E7164B124C23608B
:102040006360A360E36023616361A361E361236272
:102050006362A362E36223636363A363E363236452
:102060006364A364E36423656365A365E365236632
:102070006366A366E36623676367A367E367A36496
:10208000D1E7C04653440000700B00204C330000E1
:10209000580E00209920001007B5604601880A0AF2
:1020A0000230DF2AFAD1C9B2820804D302884088FC
:1020B0000004104300E00068014A5050039007BD3F
:1020C000700B002051434343C9188C46110C83B256
:1020D0004B4310B4040C614392B280B2504362434C
:1020E0001C041B0C001910BC59411304120CC0181D
:1020F0005141614470470000132310B512481C7809
:10210000FFF730FF0100012C0AD003DD80220F48C9
:1021100000F046F80E48FFF71DFF0E4B186010BD8B
:102120000A4C5422200000F03BF80B4B6365A3657A
:10213000E36523666366A366E36623676367A36755
:10214000E3672362E361E5E753460000700C00207B
:102150004C330000580E00205D21001007B560468A
:1021600001880A0A0230DF2AFAD1C9B2820804D3F0
:10217000028840880004104300E00068014A505083
:10218000039007BD700C002010B500F061F910BD80
:1021900001480421014B184700020020751F001060
:1021A000014B5B68184700000002002010B5FFF7E4
:1021B000EBFF10BD030010B5080011001B68984725
:1021C00010BDC046F0B546464F46D646C0B5437C26
:1021D00080460E001700002B46D0002A3FDD4B1E24
:1021E0009946244B0125002400209A460DE04B46D9
:1021F0001B5D0D3B5A425341325DDBB20A2A0BD0C4
:102200002B00013401359F421ADD002CEFD14346EB
:10221000325D1B7C0A2AF3D1002BF1D1A04204DAF3
:102220004346211A1B6830189847434650461B689E
:1022300002219847013428002B0001359F42E4DC3D
:10224000874204DD4346391A1B6830189847F6194F
:10225000013E33780D3B5A42534142461374E0BC71
:10226000BA46B146A846F0BD036811003000984751
:10227000F5E7C0465C280010F0B557464E46454687
:10228000DE461C00D023E0B51B061F68344B83B02C
:1022900006000D00180001A991469A4600F078FA50
:1022A0008046002808D1019B7FB29F4204D050464F
:1022B00000F076FA012398466B1C03D1300000F041
:1022C000F3F80500002C27D1264F274B1C68002C63
:1022D00018D04B46002B21D1244B994602E0E468EC
:1022E000002C0FD02368002BF9D04B461B68002B25
:1022F00001D0A342F3D120002A003100B847E4689E
:10230000002CEFD14346002B25D103B0F0BCBB46D7
:10231000B246A946A046F0BD154FD6E7134B9946E5
:102320000A239B4602E0E468002CEBD02368002BD4
:10233000F9D04B461B68002B01D0A342F3D12A00F1
:1023400031002000B8475A466B4620001A7101A997
:102350000122B847E7E7504600F00AFAD5E7C04641
:10236000500A0020C5210010340E00203C0E002031
:10237000B5210010F0B5CE46474680B583B06B4618
:10238000DE1CD02330701B061C681F4B804601A941
:102390001800994600F0FCF9071E20D01B4B1C6862
:1023A000002C28D01A4D02E0E468002C0FD02368DE
:1023B000002BF9D02B68002B01D0A342F4D12000D0
:1023C00001223100FFF7FEFEE468002CEFD1002F60
:1023D00011D1404603B0C0BCB946B046F0BD019B28
:1023E00064B29C420BD0484600F0DAF9074B012753
:1023F0001C68002CD6D1484600F0BAF9E9E7034B37
:102400001C68002CCED1E4E7500A0020340E0020D6
:102410003C0E002070B5040000F046F800230100D7
:10242000050001222000FFF727FF084B1C68002C45
:1024300006D06368002B05D09847E468002CF8D1DB
:10244000280070BDE468002CF3D1F9E7340E0020B9
:1024500010B5034B0100186800F0A2F810BDC0468B
:102460001002002010B5024800F07CF910BDC046F3
:102470008C0D002010B5024800F076F910BDC04662
:102480008C0D0020002370B5064D040008002B6061
:10249000FFF7A6F9431C00D070BD2B68002BFBD0C2
:1024A0002360F9E7380E002010B583070AD0030037
:1024B000032102E001330B4205D01A78002AF9D13A
:1024C000181A10BD030019680C4A0D4C8A188A436B
:1024D00022420FD15968094A04338A188A4322429A
:1024E00008D15968054A04338A188A432242F1D038
:1024F00000E001331A78002AFBD1E1E7FFFEFEFE7F
:1025000080808080F8B50C000500FFF7ABFF204FFE
:10251000BB685E6803239E431E4B341B9C46644489
:10252000240B013C113324039C4207DB00212800CB
:10253000FFF7A8FFBB689B19984204D02800FFF75B
:1025400099FF0020F8BD28006142FFF79BFF431C64
:102550000DD00122BB68361B16435E600E4B28006F
:102560001A68141B1C60FFF785FF0120EAE70021B1
:102570002800FFF787FFBA68831A0F2BDEDD0749B3
:102580000968401A0449086001210B435360D5E7EC
:1025900040060020EF0F0000900D0020480A0020A8
:1025A000F0B5C64605000C0000B500294FD0FFF776
:1025B00059FF210008394C68012622000320B2434C
:1025C0008F187B688343624898468368BB426AD011
:1025D00043467B6026421ED108239C460C688444F7
:1025E000091B12198C6864454FD0CB68E3609C606E
:1025F0004346FC186468344211D1BB68554C4244D0
:10260000A34200D17EE0FC68DC60A3600123134399
:102610004B608A5006E0FC1864683442EDD01643E3
:102620004E603A6080239B009A4213D25409D3082B
:102630000122A2404468DB002243426018188368EC
:10264000C8608B608160D9602800FFF713FF80BCF1
:10265000B846F0BD530A042B3ED8940926003934FD
:102660003836E40004192368083C03279C4242D012
:102670005868B843904202D99B689C42F8D1DC6804
:10268000CC608B60A160D960DEE74346F8184068F3
:10269000304257D1FB68B86842441643C360986023
:1026A0004E608A50D0E713004344264206D10A68A0
:1026B000891A8C689B18CA68E260946001221A43E8
:1026C0004A60254A816012689A42BDD8234B28008F
:1026D0001968FFF717FFB7E7142B07D9542B1AD83F
:1026E000140B26006F346E36E400BBE71E005C332B
:1026F0005B36DC00B6E70122B610B24046683243D2
:102700004260BDE7D9609960CB608B6001231343C1
:102710004B608A5098E7AA246400A34205D8D40BE2
:10272000260078347736E4009CE70D4CA34205D8A8
:10273000940C26007D347C36E40093E7FE247E264C
:10274000A4008FE7330013434B603A607CE7C04638
:1027500040060020480600204C0A0020B80D00204A
:10276000540500007047C0467047C046F8B5C046E3
:1027700001B40248844601BC604700BF4D010020FF
:1027800001B40248844601BC604700BF75010020C7
:1027900001B40248844601BC604700BF0901002023
:1027A00001B40248844601BC604700BFC10000205C
:1027B000446167204B6F6275732100004861726449
:1027C0007761726520616C61726D20256420616C97
:1027D000726561647920636C61696D6564000000F5
:1027E0000A2A2A2A2050414E4943202A2A2A0A002E
:1027F0000A0000004861726420617373657274009E
:1028000052656C6561736500626F6F74325F773219
:102810003571303830000000312E332E300000008A
:102820007069636F000000006C636400466562209D
:10283000313720323032320006005250BBFF3CB6F6
:102840002028001006005250E182887F08280010DE
:1028500006005250D3F07542002800100D0A000007
:10286000B4020010A80200109C02001038280010CA
:0C287000900200104428001050280010B6
:10287C00D02330B500251B0600245D5706E0036805
:10288C00BFF35F8F1C6081F3108820BF0268EFF3E9
:10289C00108172B61368002BFCD0BFF35F8F0379E5
:1028AC007F2BECD905710368BFF35F8F00221A6090
:1028BC0081F3108830BDC04603000068EFF3108C24
:1028CC0072B60268002AFCD0BFF35F8F04229A56BE
:1028DC00002A0BDB00290FD000200A601B68BFF315
:1028EC005F8F00221A608CF310887047D02212067A
:1028FC00126801201A71F1E70020EFE70268EFF38C
:10290C00108172B61368002BFCD0BFF35F8FFF23CE
:10291C0003710368BFF35F8F00221A6081F3108884
:10292C0040BF70477047C046100000009401002063
:10293C0000000000700A0020F40D002000000000D0
:10294C0000000000040E0020000000000000000049
:10295C00100000000000000000000100000000005A
:10296C000000000000000200000000000000000059
:10297C000000030000000000000000000000FF0049
:10298C000000000000B5486801318E4600477046D3
:10299C0009380149884700BD4D1D0010000000009A
:1029AC00503300004C33000054330000523300000D
:1029BC004D5300004D4300005334000043340000DD
:1029CC001802002000000000000000000405002098
:1029DC006C050020D4050020000000000000000061
:1029EC0000000000000000000000000000000000DB
:1029FC0000000000000000000000000000000000CB
:102A0C0000000000000000000000000000000000BA
:102A1C0000000000000000000000000000000000AA
:102A2C00000000000000000000000000000000009A
:102A3C00000000000000000000000000000000008A
:102A4C00000000000000000000000000000000007A
:102A5C00000000000000000000000000000000006A
:102A6C00000000000000000000000000000000005A
:102A7C0001000000000000000E33CDAB34126DE6F7
:102A8C00ECDE05000B000000000000000000000060
:102A9C00000000000000000000000000000000002A
:102AAC00000000000000000000000000000000001A
:102ABC00000000000000000000000000000000000A
:102ACC0000000000000000000000000000000000FA
:102DFC0000000000000000004006002040060020FB
:102E0C0048060020480600205006002050060020EE
:102E1C00580600205806002060060020600600209E
:102E2C00680600206806002070060020700600204E
:102E3C0078060020780600208006002080060020FE
:102E4C0088060020880600209006002090060020AE
:102E5C009806002098060020A0060020A00600205E
:102E6C00A8060020A8060020B0060020B00600200E
:102E7C00B8060020B8060020C0060020C0060020BE
:102E8C00C8060020C8060020D0060020D00600206E
:102E9C00D8060020D8060020E0060020E00600201E
:102EAC00E8060020E8060020F0060020F0060020CE
:102EBC00F8060020F806002000070020000700207C
:102ECC00080700200807002010070020100700202A
:102EDC0018070020180700202007002020070020DA
:102EEC00280700202807002030070020300700208A
:102EFC00380700203807002040070020400700203A
:102F0C0048070020480700205007002050070020E9
:102F1C005807002058070020600700206007002099
:102F2C006807002068070020700700207007002049
:102F3C0078070020780700208007002080070020F9
:102F4C0088070020880700209007002090070020A9
:102F5C009807002098070020A0070020A007002059
:102F6C00A8070020A8070020B0070020B007002009
:102F7C00B8070020B8070020C0070020C0070020B9
:102F8C00C8070020C8070020D0070020D007002069
:102F9C00D8070020D8070020E0070020E007002019
:102FAC00E8070020E8070020F0070020F0070020C9
:102FBC00F8070020F8070020000800200008002077
:102FCC000808002008080020100800201008002025
:102FDC0018080020180800202008002020080020D5
:102FEC002808002028080020300800203008002085
:102FFC003808002038080020400800204008002035
:10300C0048080020480800205008002050080020E4
:10301C005808002058080020600800206008002094
:10302C006808002068080020700800207008002044
:10303C0078080020780800208008002080080020F4
:10304C0088080020880800209008002090080020A4
:10305C009808002098080020A0080020A008002054
:10306C00A8080020A8080020B0080020B008002004
:10307C00B8080020B8080020C0080020C0080020B4
:10308C00C8080020C8080020D0080020D008002064
:10309C00D8080020D8080020E0080020E008002014
:1030AC00E8080020E8080020F0080020F0080020C4
:1030BC00F8080020F8080020000900200009002072
:1030CC000809002008090020100900201009002020
:1030DC0018090020180900202009002020090020D0
:1030EC002809002028090020300900203009002080
:1030FC003809002038090020400900204009002030
:10310C0048090020480900205009002050090020DF
:10311C00580900205809002060090020600900208F
:10312C00680900206809002070090020700900203F
:10313C0078090020780900208009002080090020EF
:10314C00880900208809002090090020900900209F
:10315C009809002098090020A0090020A00900204F
:10316C00A8090020A8090020B0090020B0090020FF
:10317C00B8090020B8090020C0090020C0090020AF
:10318C00C8090020C8090020D0090020D00900205F
:10319C00D8090020D8090020E0090020E00900200F
:1031AC00E8090020E8090020F0090020F0090020BF
:1031BC00F8090020F8090020000A0020000A00206D
:1031CC00080A0020080A0020100A0020100A00201B
:1031DC00180A0020180A0020200A0020200A0020CB
:1031EC00280A0020280A0020300A0020300A00207B
:1031FC00380A0020380A0020FFFFFFFF0000020001
:10320C00000000000000000091210010451F00107C
:0C321C0005200010F9200010ED02001049
:04000005100001E9FD
:00000001FF
